:100000000C9413010C9430010C9430010C943001C9
:100010000C9430010C94E3010C9430010C943001E9
:100020000C9430010C9430010C9430010C9430018C
:100030000C9430010C9430010C9430010C9430017C
:100040000C94630D0C9430010C9430010C9430012D
:100050000C94340C0C94F20B0C9430010C94300181
:100060000C9430010C9430010C9430010C9430014C
:100070000C9430010C9430010C94300120002000CD
:10008000436C656172656420726F77733A20253620
:10009000640053636F72653A202536640053636FC2
:1000A00072653A20253664005072657373206120B2
:1000B000627574746F6E20746F2073746172742033
:1000C000616761696E0047414D45204F56455200BA
:1000D000436C656172656420726F77733A202536D0
:1000E000640053636F72653A2025366400435353AE
:1000F00045323031302F37323031205465747269D7
:10010000732050726F6A656374206279204D617844
:1001100020426F0054657472697300860183017F09
:10012000017B01770173016F016B0167016301F5C9
:1001300001F101ED01E901E501E101DD01D901D69E
:1001400001D201CE01CA01C501C101BD01B901B48D
:1001500001B001AC01A701A3019E01990194018F97
:10016000018A016492927D6C92926D809EA0C17C06
:1001700092924DE4A2A29D182848FF4492926D46A7
:100180008A926342FE037C92A27D868A92A2C3E099
:10019000100E10E1C6281028C7FC021C02FDF8044E
:1001A0000204F9FC0202FD8080FE80816492924D7F
:1001B000FE9098677C828A7C03FE9090617C8282AC
:1001C0007DFE2010FFFE403040FFFE020203FE10C5
:1001D00028C7040202FD82FE83FE1010FF7C82927B
:1001E0005DFE909081FE929283FE82827D7C82826F
:1001F00045FE92926D7E90907F1B5B421B5B44009C
:100200001B5B3F32356C001B5B25646D001B5B3252
:100210004A001B5B376D001B5B306D001B5B256468
:100220003B256448000011241FBECFEFD8E0DEBF9D
:10023000CDBF11E0A0E0B1E0E2EDF2E202C0059036
:100240000D92AC37B107D9F723E0ACE7B1E001C0BC
:100250001D92A935B207E1F70E94280A0C94671194
:100260000C940000CF93DF93EC010E94170E25E061
:1002700030E040E050E00E94880D8BE06802F00121
:100280001124E45CFE4F438154812081818192815D
:1002900068835A8349832B831C821D821E829F831D
:1002A0008887CE01DF91CF910895FC012085478199
:1002B0003581822F90E0830F911D09974CF5348191
:1002C000842F90E0830F911D419724F5868190E063
:1002D000019683709078992324F401978C6F9F6F17
:1002E0000196DC01BB279081AA0FBB1F3BE0930264
:1002F000A00DB11D1124A45CBE4F13966D917C918D
:1003000014977283618386832783408781E00895F1
:1003100080E0089580E00895FC019581278130E018
:10032000290F311D2830310524F49F5F958381E02A
:10033000089580E00895FC019581992321F0915062
:10034000958381E0089580E00895E8E6F0E08081FB
:1003500082608083D99AECE6F0E080818F608083B0
:1003600010927C01089510927C01089580917C0187
:1003700018163CF580917D016FB7F89490917C013F
:100380009230B4F021E030E091E0F901E358FE4F03
:100390004081F901E458FE4F40839F5F292F30E0F0
:1003A00040917C01042E000C550B241735076CF38B
:1003B00090917C01915090937C0166231CF4789479
:1003C00008958FEF08951F920F920FB60F92112488
:1003D0002F933F934F935F936F937F938F939F934D
:1003E000EF93FF9343B14F7080917C01883064F5A7
:1003F00080E090E0642F70E09B01082E02C03595EC
:1004000027950A94E2F720FF1BC02091850130E078
:10041000082E02C0359527950A94E2F720FD10C0FA
:10042000E0917C0121E02E0F20937C010E2E000C28
:10043000FF0BE358FE4F808320917C01283024F489
:10044000019684309105C1F640938501FF91EF91AB
:100450009F918F917F916F915F914F913F912F91DC
:100460000F900FBE0F901F901895EF92FF920F9371
:100470001F93CF93DF93CDB7DEB729970FB6F894CC
:10048000DEBF0FBECDBF09831A832B833C834D8310
:100490005E836F8378878987EA80FB80982F882323
:1004A00071F1052FF701208130E002C0220F331FC8
:1004B0005A95E2F7E42FF0E0EA5DFD4F8081822358
:1004C00001F5F7013196A42FB0E0A95DBD4F915021
:1004D000692F70E06F5F7F4F6E0D7F1D0CC0919193
:1004E0004D91292F30E0002E02C0220F331F0A94B5
:1004F000E2F7242341F4E617F70789F705C080E007
:1005000003C081E001C081E029960FB6F894DEBFF8
:100510000FBECDBFDF91CF911F910F91FF90EF9054
:100520000895FF920F931F93CF93DF93D0913E02D4
:10053000DD2399F1E6E3F2E014814781858157E0FC
:10054000581BA181B281C0E0F12C00E06C2F610F3B
:100550004423F9F02F2D302F70E0660F771F660FC0
:10056000771F660F771F8C9190E0022E02C0959541
:1005700087950A94E2F780FF08C0852F821BFB0154
:10058000E80FF11DEA55FE4F10822F5F3F4F2417F1
:1005900050F3CF5F1196CD17C8F2DF91CF911F9125
:1005A0000F91FF900895EF92FF920F931F93CF93B7
:1005B000DF9310913E021123A1F1E6E3F2E0048102
:1005C0004781858157E0581BC381A181B281D0E06A
:1005D000E12CF12C6D2F600F4423F9F02E2D3F2DCF
:1005E00070E0660F771F660F771F660F771F8C917D
:1005F00090E0022E02C0959587950A94E2F780FF5D
:1006000008C0852F821BFB01E80FF11DEA55FE4F44
:10061000C0832F5F3F4F241750F3DF5F1196D11730
:10062000C8F2DF91CF911F910F91FF90EF90089545
:10063000811109C08EE790E09F938F930E94630E13
:100640000F900F9008958F3051F0803F51F08F3F01
:1006500051F08C3351F0853151F484E209C08FE1BF
:1006600007C080E205C081E203C082E201C08FE1E1
:100670000E94E90C0E94D70C8CE790E09F938F9327
:100680000E94630E0E94CE0C0F900F9008950F935E
:100690001F93CF93DF93CFE06C2F8FE00E94B50CB8
:1006A00080E00E94180380E00E94180380E00E940E
:1006B0001803CF5FC23181F78091A501882309F427
:1006C0004DC0C0E00DE911E06FE06C0F8FE00E94BB
:1006D000B50C0E94F60CD8011396DC911397119675
:1006E000ED91FC911297EC0FF11D9081923099F0F1
:1006F00018F4913031F02CC09330B9F09730F9F004
:1007000027C080E00E94180380E00E9418038D2F0C
:100710000E9418031DC080E00E9418038D2F0E94C4
:10072000180380E00E94180313C080E00E941803A1
:100730008D2F0E9418038D2F0E94180309C08D2F42
:100740000E9418038D2F0E9418038D2F0E941803FA
:10075000CF5FF8018085C81708F4B6CFDF91CF913D
:100760001F910F9108950F931F93CF93DF938B01E8
:1007700065E0680F8EE10E94B50CE801085F1F4F2D
:1007800089910E941803C017D107D1F7DF91CF914B
:100790001F910F9108950F931F93CF93DF93182FFD
:1007A0000FEF060F080F0817A8F0C12FD0E0CC0FED
:1007B000DD1FCC0FDD1FCC0FDD1FCA55DE4FBE0184
:1007C000812F0E949B06BE01812F0E94B3031F5FF1
:1007D000011758F7DF91CF911F910F9108950F9353
:1007E0001F93CF93DF93CDB7DEB729970FB6F89459
:1007F000DEBF0FBECDBF89E0EDE9F1E0A6E3B2E0D8
:1008000001900D928A95E1F7CE0101960E94320186
:1008100089E0FE013196ADE9B1E001900D928A9533
:10082000E1F70E94470300913602109137022091B0
:1008300038023091390240913A0250913B02609166
:100840003C0270913D0280913E020E94350281116E
:100850000AC00E94D302E6E3F2E0608584810E9430
:10086000CB0381E001C080E029960FB6F894DEBF8B
:100870000FBECDBFDF91CF911F910F910895CF9300
:10088000DF93CDB7DEB729970FB6F894DEBF0FBE62
:10089000CDBF0E94BD06A6E2B2E026EA31E046E204
:1008A00052E090E01D92F901892F11928F5F8830FC
:1008B000E1F7285F3F4F24173507A1F7CE010196D6
:1008C0000E94320189E0FE013196ADE9B1E001906C
:1008D0000D928A95E1F70E94EF0329960FB6F894DE
:1008E000DEBF0FBECDBFDF91CF9108950F931F9351
:1008F000CF93DF93CDB7DEB729970FB6F894DEBF5D
:100900000FBECDBF99E0E6E3F2E0DE011196019063
:100910000D929A95E1F7811107C0CE0101960E94D0
:100920008C01811107C028C0CE0101960E949B0155
:10093000882321F109811A812B813C814D815E81BF
:100940006F81788589850E943502811119C00E94C6
:10095000910289E0FE013196A6E3B2E001900D928A
:100960008A95E1F70E94D302E6E3F2E06085848194
:100970000E94CB0381E005C080E003C080E001C09D
:1009800080E029960FB6F894DEBF0FBECDBFDF9191
:10099000CF911F910F910895FF920F931F93CF93C3
:1009A000DF93CDB7DEB729970FB6F894DEBF0FBE41
:1009B000CDBFE6E3F2E04481808590E0840F911D95
:1009C00040977CF589E0DE01119601900D928A95A1
:1009D000E1F7FF24F394F40E09811A812B813C8105
:1009E0004F2D5E816F81788589850E943502811146
:1009F0001AC00E949102FD8289E0FE013196A6E3B1
:100A0000B2E001900D928A95E1F70E94D302E6E3ED
:100A1000F2E060856F5F848181500E94CB0381E0AA
:100A200003C080E001C080E029960FB6F894DEBFD5
:100A30000FBECDBFDF91CF911F910F91FF90089511
:100A40004E9B12C094E28BB180588BB9E7EEF3E075
:100A50003197F1F700C000008BB180588BB9F0E1FD
:100A6000FA95F1F7915079F708954E9B15C09CE0E7
:100A70008BB180588BB9E7EBFBE03197F1F700C001
:100A800000008BB180588BB9E7EBFBE03197F1F7B1
:100A900000C00000915061F708950F931F93CF930A
:100AA000DF93CDB7DEB729970FB6F894DEBF0FBE40
:100AB000CDBF89E0E6E3F2E0DE01119601900D92F0
:100AC0008A95E1F7CE0101960E945501882359F1DC
:100AD00009811A812B813C814D815E816F817885EE
:100AE00089850E943502811120C0898510913E02BE
:100AF000181708F4182F0E94910289E0FE01319620
:100B0000A6E3B2E001900D928A95E1F70E94D3022C
:100B1000612F80913A020E94CB030E9420050E941F
:100B2000350581E003C080E001C080E029960FB662
:100B3000F894DEBF0FBECDBFDF91CF911F910F9113
:100B400008954E9B15C096E08BB180588BB9EFE6A7
:100B5000F7E13197F1F700C000008BB180588BB9F5
:100B6000EFE6F7E13197F1F700C00000915061F72F
:100B700008954F925F926F928F929F92AF92BF9221
:100B8000CF92DF92EF92FF921F93CF93DF9381E09A
:100B900090E00E943C0A63E083E00E94B50C0E9452
:100BA000510A9F938F937F936F938DE990E09F936A
:100BB0008F930E94630E30913E020F900F900F9022
:100BC0000F900F900F903323D1F0E6E3F2E06481B1
:100BD0004581A181B28120E0E22FE60FF0E08D9106
:100BE000EA5DFD4F90E0042E02C0880F991F0A9421
:100BF000E2F79081892B80832F5F231768F30E948F
:100C0000A1050E94A105C6E2D2E010E00F2EF2E994
:100C1000EF2EF0E0FF2EF02D0F2EF0E84F2EF0E03B
:100C20005F2EF02D5E010F2EF6EACF2EF1E0DF2EC3
:100C3000F02D0F2EFEEA8F2EF1E09F2EF02D6894FE
:100C4000662463F889918F3F09F05CC084E690E0E8
:100C50000E943C0A0E945D0A63E083E00E94B50C9A
:100C60000E94510A9F938F937F936F93FF92EF920D
:100C70000E94630E66E083E00E94B50C0E94650A44
:100C80001F928F935F924F920E94630E8DB79EB713
:100C90000A960FB6F8949EBF0FBE8DBF1123F9F0D0
:100CA000212F822F90E0FC013197DF01AA5DBD4F1B
:100CB0003C91DC01AA5DBD4F3C93EE0FFF1FEE0F90
:100CC000FF1FEE0FFF1FDF01AA55BE4FE255FE4F7B
:100CD000862D9D9191938150E1F7215011F7F501F7
:100CE0001082F6011192E815F905E1F70E94A105BD
:100CF0000E9435050E9420050E94350560E180E0D4
:100D00000E94CB031F5F103109F09CCF0E94EF03BC
:100D1000DF91CF911F91FF90EF90DF90CF90BF9028
:100D2000AF909F908F906F905F904F90089580E864
:100D30000E94870C08950F931F93CF93DF93C82FC2
:100D40008B0183E00E94AF0C8C2F8F700E94AF0C40
:100D5000E801085F1F4F89910E94AF0CC017D107AF
:100D6000D1F7DF91CF911F910F91089584E00E94F8
:100D7000AF0C82E00E94AF0C08958FE00E94AF0C90
:100D800008950E9497060E94A50140E060E07BE480
:100D900080E090E00E949F0B0E943D0D789480E4DB
:100DA00080937C0084E880937A000895FF920F93EB
:100DB0001F93CF93DF9380E00E94E90C0E94E00C28
:100DC0000E94F60C63E083E00E94B50C84E191E0A0
:100DD0009F938F930E94630E65E083E00E94B50CA1
:100DE00080E20E94E90C8DEE90E09F938F930E9429
:100DF000630E85E20E94E90C0E94BD060F900F90E1
:100E00000F900F90CFE00F2EFFE0FF2EF02D0FEF91
:100E100010EFD5E16C2F83E791E00E94680A0DC0C6
:100E20002FE78CE293E0215080409040E1F700C032
:100E300000000E94B6018F3FA9F50E94770A811138
:100E4000EFCF0E94170EDC01CB0183709927AA27F0
:100E5000B078BB2354F40197A109B1098C6F9F6F3F
:100E6000AF6FBF6F0196A11DB11D81309105A10526
:100E7000B10591F02CF4892B8A2B8B2B59F0CACF1A
:100E800082309105A105B10549F00397A105B1058F
:100E900039F0C0CFCD2FBECFCF2DBCCFC02FBACF12
:100EA000C12FB8CFDF91CF911F910F91FF9008957F
:100EB0000E943F040E94E00C0E94330A0E945A0ADA
:100EC0000E94B3010E94ED0B08956EE08AE00E943B
:100ED000B50C86EC90E09F938F930E94630E6FE0B9
:100EE0008AE00E94B50C88EA90E09F938F930E945D
:100EF000630E0F900F900F900F900E94B6018F3FDE
:100F0000E1F3089590918B0181E0892780938B0113
:100F100080918B01811116C00E94650A9DEC899F0A
:100F2000912D1124969596959695990F292F220F1C
:100F3000220F920F891BE82FF0E0ED5DFE4F8081BC
:100F400088B908950E94650A9DEC899FE12D1124BE
:100F5000E695E695E695E99F812D1124869586957F
:100F60008695880F982F990F990F890FE81BF0E04D
:100F7000ED5DFE4F8081806888B90895809186017B
:100F8000811104C080E480937C0003C081E48093DD
:100F90007C00EAE7F0E0808180648083808180FDCE
:100FA000FDCF8091860181110CC0809178009091D5
:100FB0007900909322018093210181E08093860142
:100FC000089580917800909179009093200180930A
:100FD0001F011092860108950F931F9380912101A4
:100FE000909122018335934008F10E94550D0091A4
:100FF0008701109188012091890130918A0106179B
:10100000170728073907A0F40E94550DDC01CB0112
:101010008A569F4FAF4FBF4F8093870190938801AF
:10102000A0938901B0938A0181E003C080E001C0F0
:1010300080E01F910F9108950F931F9380912101DC
:10104000909122018639910508F50E94550D009175
:101050008701109188012091890130918A0106173A
:10106000170728073907A0F40E94550DDC01CB01B2
:101070008A569F4FAF4FBF4F80938701909388014F
:10108000A0938901B0938A0181E003C080E001C090
:1010900080E01F910F9108950F931F9380911F017E
:1010A000909120018335934008F10E94550D0091E5
:1010B0008701109188012091890130918A010617DA
:1010C000170728073907A0F40E94550DDC01CB0152
:1010D000845D9E4FAF4FBF4F8093870190938801EF
:1010E000A0938901B0938A0181E003C080E001C030
:1010F00080E01F910F9108950F931F9380911F011E
:10110000909120018639910508F50E94550D0091B6
:101110008701109188012091890130918A01061779
:10112000170728073907A0F40E94550DDC01CB01F1
:101130008A569F4FAF4FBF4F80938701909388018E
:10114000A0938901B0938A0181E003C080E001C0CF
:1011500080E01F910F9108952F923F924F925F92DE
:101160006F927F928F929F92AF92BF92CF92DF92B7
:10117000EF92FF920F931F93CF93DF9300D000D095
:10118000CDB7DEB78FEF87B9579A569863E083E003
:101190000E94B50C0E94510A9F938F937F936F9387
:1011A00082EE90E09F938F930E94630E66E083E04F
:1011B0000E94B50C0E94650A1F928F9380ED90E00B
:1011C0009F938F930E94630E0E94470345E26EE156
:1011D00084E00E94FF0C45E26EE185E10E94FF0C75
:1011E00045E164E08DE10E94170D45E164E086E28F
:1011F0000E94170D0E94550D4B015C010FB6F8942B
:10120000DEBF0FBECDBF19821A821B821C82512CF9
:10121000612C77247A9400E012EE0F2EF3E52F2E46
:10122000F3E03F2EF02D6894442441F80E94820799
:101230000E94BE070E94B601D82E3FEF8313E7C07D
:101240000E94E60B882309F4D2C0F10180819181CC
:101250000E94250EF82E611006C0FBE18F1709F4DD
:10126000C8C0E72C0EC021E0621206C03BE5831720
:1012700009F4C3C0E72C05C042E06412C1C0E82EE7
:10128000F72C54E4E51631F0C6C00E94EC07882321
:1012900041F003C0602E01C0602E802F0E947604B2
:1012A0007CC0DD2049F0E72CF72C83E4E81621F020
:1012B0000E941C08882321F081E00E9476046DC002
:1012C00092E0D91639F0E1E4EE1621F00E944C08C4
:1012D000882319F00E944D0560C0F2E4EF1621F05A
:1012E0000E947C08882371F00E94CC04811105C003
:1012F0000E94B905882309F494C00E94550D4B0142
:101300005C014BC021E0D21619F030E2F31209C0A3
:101310000E94CC048111FCCF0E94B90581113DC00F
:1013200080C08F2D8F7D8035C1F551100DC00E947A
:10133000550D69837A838B839C830E94550D0E948F
:10134000650A5524539472CF0E94550D29813A8124
:101350004B815C81821A930AA40AB50A860E971EF5
:10136000A81EB91E0E94550D6B017C010E94650AE2
:10137000382F1303C0011124885A9D4F092E000CE9
:10138000AA0BBB0B880D991DAA1DBB1DC816D9063B
:10139000EA06FB06F0F4502E49CF0E94550D6B0172
:1013A0007C010E94650A482F1403C0011124885A49
:1013B0009D4F092E000CAA0BBB0B880D991DAA1D71
:1013C000BB1DC816D906EA06FB0608F42FCF51103C
:1013D0002DCF0E94CC04811104C00E94B90588233E
:1013E00001F10E94550D4B015C01502E1FCFF72CCF
:1013F00008C066246394F72C04C0642CF72C01C049
:10140000602E0E94EC07811148CFE72C51CF53E0AA
:1014100085133BCF42CF0E94EC0781113DCF602E58
:1014200044CF0F900F900F900F90DF91CF911F91AD
:101430000F91FF90EF90DF90CF90BF90AF909F9073
:101440008F907F906F905F904F903F902F90089576
:101450000E94C1060E94D6060E9458070E94AC084E
:101460000E946507F9CF10928D0110928E011092A3
:101470008F0110929001089540918D0150918E013D
:1014800060918F0170919001480F591F611D711D6E
:1014900040938D0150938E0160938F017093900162
:1014A000089560918D0170918E0180918F019091CE
:1014B0009001089510928C01089580918C018336DB
:1014C00018F48F5F80938C01089580918C010895AA
:1014D00060932D0190939501809394011092970150
:1014E00010929601109293011092920108950F9319
:1014F0001F93CF93DF93CDB7DEB728970FB6F8943D
:10150000DEBF0FBECDBFE0919601F09197013097FD
:1015100081F0149110FF06C010929701109296016D
:1015200000E06BC03196F0939701E093960100E0E4
:1015300064C0E0919201F0919301309709F449C0A1
:10154000CF0101969093930180939201E081E11184
:101550000AC0109293011092920180E18093910150
:1015600000E010E04AC08FE98E0F8A3170F4F0E09D
:10157000EE0FFF1FE359FF4F8591949190939701D0
:101580008093960100E010E038C08FEB8E0F8A3117
:1015900070F4F0E0EE0FFF1FE355FF4F859194913B
:1015A000909397018093960100E010E026C080EDB3
:1015B0008E0F8A3000F5F0E0EE0FFF1FE554FF4F6D
:1015C00085919491909397018093960100E010E0AB
:1015D00014C0809194019091950101E0009709F069
:1015E00000E09093930180939201109295011092E4
:1015F000940110E002C000E010E00E94B6062091C5
:101600002D01FE013896CE010196112314F420839A
:1016100001C01082110F3197E817F907B1F719824D
:10162000BE016F5F7F4F8FE00E949B06809191010A
:10163000882389F0815080939101002311F0882341
:1016400011F090E003C091E001C091E081E09923A6
:1016500029F080E003C00111F8CFF3CF28960FB630
:10166000F894DEBF0FBECDBFDF91CF911F910F91D8
:101670000895CF93C82F8A3019F48DE00E94390B5A
:101680002FB7207802C0222329F1909140029F3F7A
:10169000D1F3F894E0913F0281E08E0F80933F02F6
:1016A000F0E0EF5BFD4FC083809140028F5F80933D
:1016B000400280913F028F3F11F410923F02E1EC13
:1016C000F0E0808180628083222339F0789480E08A
:1016D00090E005C081E090E002C080E090E0CF9112
:1016E0000895809152038823E1F32FB72078F8946E
:1016F000809140033091520390E0831B91095AF48A
:10170000E091400380915203F0E0E81BF109EF5AA9
:10171000FC4F80810AC0E091400380915203F0E0C9
:10172000E81BF109EF5BFC4F8081909152039150CF
:1017300090935203222309F0789490E00895109238
:101740003F021092400210924003109252031092F6
:10175000510340939801DC01CB01880F991FAA1F08
:10176000BB1F880F991FAA1FBB1F9C01AD01220F31
:10177000331F441F551F60E072E18AE790E00E942A
:10178000880DBA01A9014F5F5F4F6F4F7F4FDB019B
:10179000CA011AF40196A11DB11DB595A79597959B
:1017A000879501979093C5008093C400E1ECF0E029
:1017B00088E18083808180688083E3E5F3E08EE2C6
:1017C00091E0938382839183808308959091520363
:1017D00081E0911101C080E00895109240031092C1
:1017E000520308951F920F920FB60F9211242F9358
:1017F0008F939F93EF93FF9380914002882329F169
:1018000080913F022091400290E0821B91095AF49E
:10181000E0913F0280914002F0E0E81BF109E05CBA
:10182000FC4F90810AC0E0913F0280914002F0E0BD
:10183000E81BF109EF5BFD4F9081809140028150E0
:10184000809340029093C60005C0E1ECF0E08081F7
:101850008F7D8083FF91EF919F918F912F910F90BA
:101860000FBE0F901F9018951F920F920FB60F92F8
:1018700011242F933F934F935F936F937F938F9395
:101880009F93AF93BF93CF93EF93FF93C091C60005
:1018900080919801882349F0809140028F3F29F080
:1018A00060E070E08C2F0E94390B809152038031F0
:1018B00020F081E08093510318C0CD3009F4CAE0D4
:1018C000E091400381E08E0F80934003F0E0EF5BF6
:1018D000FC4FC083809152038F5F809352038091AD
:1018E0004003803111F410924003FF91EF91CF91AA
:1018F000BF91AF919F918F917F916F915F914F9128
:101900003F912F910F900FBE0F901F90189594B19B
:10191000906B94B92C9A90E59CBD883021F0803270
:1019200011F0823019F491E09DBD01C01DBC8032E0
:1019300069F028F4883071F0803161F00EC0803495
:1019400029F0803851F48CB581608CBD8CB58260F3
:101950008CBD03C08CB581608CBD2C9808958EBD64
:101960000DB407FEFDCF8EB50895282F082E000C6C
:10197000330B3F938F93862F062E000C990B9F936A
:101980006F938CE192E09F938F930E94630E0F9070
:101990000F900F900F900F900F90089587E192E0B5
:1019A0009F938F930E94630E0F900F90089582E192
:1019B00092E09F938F930E94630E0F900F90089573
:1019C0008DE092E09F938F930E94630E0F900F9093
:1019D00008951F928F9387E092E09F938F930E94C8
:1019E000630E0F900F900F900F90089580E092E09B
:1019F0009F938F930E94630E0F900F900895CF9343
:101A0000DF93C62FD42F682F8C2F0E94B50C0E9415
:101A1000D70CDC173CF080E290E00E94890ECF5F8B
:101A2000DC17CCF70E94CE0CDF91CF9108950F9375
:101A30001F93CF93DF93C62FD42F0E94B50C0E9423
:101A4000D70CCD177CF409EF11E080E290E00E9402
:101A5000890E1F930F930E94630ECF5F0F900F901C
:101A6000CD179CF380E290E00E94890E0E94CE0C7C
:101A7000DF91CF911F910F910895109299011092CB
:101A80009A0110929B0110929C0116BC8CE787BDB5
:101A900082E084BD83E085BDEEE6F0E08081826077
:101AA000808385B3827085BB08952FB7F8946091C9
:101AB000990170919A0180919B0190919C01222340
:101AC0000CF4789408951F920F920FB60F92112480
:101AD0008F939F93AF93BF938091990190919A01B7
:101AE000A0919B01B0919C010196A11DB11D809315
:101AF000990190939A01A0939B01B0939C01BF918F
:101B0000AF919F918F910F900FBE0F901F901895DE
:101B1000052E97FB1EF400940E949F0D57FD07D0E1
:101B20000E94A70D07FC03D04EF40C949F0D509516
:101B30004095309521953F4F4F4F5F4F08959095B9
:101B40008095709561957F4F8F4F9F4F0895A1E2CB
:101B50001A2EAA1BBB1BFD010DC0AA1FBB1FEE1F27
:101B6000FF1FA217B307E407F50720F0A21BB30B72
:101B7000E40BF50B661F771F881F991F1A9469F7EE
:101B800060957095809590959B01AC01BD01CF014A
:101B900008958F929F92AF92BF92CF92DF92EF9271
:101BA000FF92CF93DF93EC01688179818A819B81D9
:101BB000611571058105910521F464E279ED8BE5EC
:101BC00097E02DE133EF41E050E00E94880D49019C
:101BD0005A019B01AC01A7EAB1E40E940E116B010E
:101BE0007C01ACEEB4EFA50194010E941C11DC0154
:101BF000CB018C0D9D1DAE1DBF1DB7FF03C001970E
:101C0000A109B04888839983AA83BB83BC01CD0115
:101C10009F77DF91CF91FF90EF90DF90CF90BF90B3
:101C2000AF909F908F9008950E94C90D089580E015
:101C300091E00E94C90D0895609300017093010125
:101C400080930201909303010895CF93DF93EC01F9
:101C50002B8120FF33C026FF0AC02F7B2B838E8170
:101C60009F8101969F838E838A8190E029C022FF05
:101C70000FC0E881F9818081082E000C990B009734
:101C800019F420622B831AC03196F983E8830EC0C1
:101C9000EA85FB85099597FF09C02B81019611F014
:101CA00080E201C080E1822B8B8308C02E813F81BE
:101CB0002F5F3F4F3F832E83992702C08FEF9FEF07
:101CC000DF91CF910895A0E0B0E0E9E6FEE00C944A
:101CD0002F11AE01495F5F4FDA016D917D91AD012A
:101CE00003E513E0F80182819381DC0113962C91C6
:101CF0001397286013962C930E94900ED801129689
:101D0000ED91FC9113972381277F2383E4E00C94CA
:101D10004B1160915503709156030E9478100895FD
:101D2000ACE0B0E0E6E9FEE00C9421117C016B012F
:101D30008A01FC0117821682838181FFBDC1CE0119
:101D400001964C01F7019381F60193FD859193FF74
:101D500081916F01882309F4ABC1853239F493FD79
:101D6000859193FF81916F01853229F4B70190E04D
:101D70000E947810E7CF512C312C20E02032A0F4C3
:101D80008B3269F030F4803259F0833269F420618B
:101D90002CC08D3239F0803339F4216026C02260A6
:101DA000246023C0286021C027FD27C030ED380FF4
:101DB0003A3078F426FF06C0FAE05F9E300D112419
:101DC000532E13C08AE0389E300D1124332E20622A
:101DD0000CC08E3221F426FD6BC1206406C08C3607
:101DE00011F4206802C0883641F4F60193FD859114
:101DF00093FF81916F018111C1CF982F9F7D9554E1
:101E0000933028F40C5F1F4FFFE3F9830DC0833636
:101E100031F0833771F0833509F05BC022C0F801DF
:101E2000808189830E5F1F4F44244394512C5401B9
:101E300015C03801F2E06F0E711CF801A080B1806E
:101E400026FF03C0652D70E002C06FEF7FEFC50174
:101E50002C870E946D102C0183012C852F77222E58
:101E600017C03801F2E06F0E711CF801A080B1803C
:101E700026FF03C0652D70E002C06FEF7FEFC50144
:101E80002C870E9462102C012C852068222E830151
:101E900023FC1BC0832D90E048165906B0F4B7010F
:101EA00080E290E00E9478103A94F4CFF50127FC8C
:101EB000859127FE81915F01B70190E00E94781023
:101EC00031103A94F1E04F1A51084114510471F75E
:101ED000E5C0843611F0893639F5F80127FF07C0CF
:101EE00060817181828193810C5F1F4F08C0608186
:101EF0007181072E000C880B990B0E5F1F4F2F76F8
:101F0000722E97FF09C090958095709561957F4FCF
:101F10008F4F9F4F2068722E2AE030E0A4010E946C
:101F2000B010A82EA81844C0853729F42F7EB22EF1
:101F30002AE030E025C0F22FF97FBF2E8F36C1F0A6
:101F400018F4883579F0B4C0803719F0883721F05B
:101F5000AFC02F2F2061B22EB4FE0DC08B2D846038
:101F6000B82E09C024FF0AC09F2F9660B92E06C064
:101F700028E030E005C020E130E002C020E132E09E
:101F8000F801B7FE07C060817181828193810C5F87
:101F90001F4F06C06081718180E090E00E5F1F4F8F
:101FA000A4010E94B010A82EA818FB2DFF777F2E49
:101FB00076FE0BC0372D3E7FA51450F474FE0AC088
:101FC00072FC08C0372D3E7E05C0BA2C372D03C0E9
:101FD000BA2C01C0B52C34FF0DC0FE01EA0DF11D75
:101FE0008081803311F4397E09C032FF06C0B3947A
:101FF000B39404C0832F867809F0B39433FD13C0E3
:1020000030FF06C05A2CB31418F4530C5B18B32CD1
:10201000B31468F4B70180E290E03C870E94781026
:10202000B3943C85F5CFB31410F43B1801C0312CA8
:1020300034FF12C0B70180E390E03C870E94781023
:102040003C8532FF17C031FD03C088E790E002C035
:1020500088E590E0B7010CC0832F867859F031FFF6
:1020600002C08BE201C080E237FD8DE2B70190E053
:102070000E947810A51438F4B70180E390E00E9424
:1020800078105A94F7CFAA94F401EA0DF11D8081DB
:10209000B70190E00E947810A110F5CF332009F429
:1020A00051CEB70180E290E00E9478103A94F6CFCA
:1020B000F7018681978102C08FEF9FEF2C96E2E1B6
:1020C0000C943D11FC010590615070400110D8F74F
:1020D000809590958E0F9F1F0895FC016150704070
:1020E00001900110D8F7809590958E0F9F1F08954D
:1020F0000F931F93CF93DF93FB01238121FD03C037
:102100008FEF9FEF28C022FF16C0468157812481A0
:1021100035814217530744F4A081B1819D012F5F9F
:102120003F4F318320838C93268137812F5F3F4F30
:102130003783268310C0EB01092F182F0084F18507
:10214000E02D0995892BE1F68E819F8101969F8371
:102150008E83812F902FDF91CF911F910F91089542
:10216000FA01AA27283051F1203181F1E8946F93C8
:102170006E7F6E5F7F4F8F4F9F4FAF4FB1E03ED06E
:10218000B4E03CD0670F781F891F9A1FA11D680F0C
:10219000791F8A1F911DA11D6A0F711D811D911D3F
:1021A000A11D20D009F468943F912AE0269F1124B4
:1021B0003019305D3193DEF6CF010895462F477018
:1021C000405D4193B3E00FD0C9F7F6CF462F4F7073
:1021D000405D4A3318F0495D31FD4052419302D0D1
:1021E000A9F7EACFB4E0A695979587957795679577
:1021F000BA95C9F700976105710508959B01AC0177
:102200000A2E06945795479537952795BA95C9F79D
:10221000620F731F841F951FA01D08950E945811FF
:10222000A59F900DB49F900DA49F800D911D11242A
:102230000895B7FF0C940E110E940E11821B930B90
:1022400008952F923F924F925F926F927F928F925A
:102250009F92AF92BF92CF92DF92EF92FF920F9335
:102260001F93CF93DF93CDB7DEB7CA1BDB0B0FB63F
:10227000F894DEBF0FBECDBF09942A8839884888FC
:102280005F846E847D848C849B84AA84B984C88492
:10229000DF80EE80FD800C811B81AA81B981CE0F89
:1022A000D11D0FB6F894DEBF0FBECDBFED0108956E
:1022B000A29FB001B39FC001A39F700D811D112487
:1022C000911DB29F700D811D1124911D0895F894E8
:0222D000FFCF3E
:1022D20001000000030101070402020301070103D8
:1022E200010702020302020703030701010101F4CD
:1022F20001F4013F065B4F666D7D077F6F0F0000A3
:10230200000300000000390B710B00000F01011ED9
:10231200011E011E011E013C03011B011A011B01CA
:102322001A01F002021801180118011801FF020334
:102332001601130111010E011502030C0109010717
:0C234200010401343339323638373100E1
:00000001FF
